{
    "contractName": "Election",
    "abi": [
        {
            "constant": false,
            "inputs": [
                {
                    "internalType": "uint256",
                    "name": "_candidateid",
                    "type": "uint256"
                }
            ],
            "name": "vote",
            "outputs": [],
            "payable": false,
            "stateMutability": "nonpayable",
            "type": "function"
        },
        {
            "constant": true,
            "inputs": [
                {
                    "internalType": "uint256",
                    "name": "",
                    "type": "uint256"
                }
            ],
            "name": "candidates",
            "outputs": [
                {
                    "internalType": "uint256",
                    "name": "id",
                    "type": "uint256"
                },
                {
                    "internalType": "string",
                    "name": "name",
                    "type": "string"
                },
                {
                    "internalType": "uint256",
                    "name": "voteCount",
                    "type": "uint256"
                }
            ],
            "payable": false,
            "stateMutability": "view",
            "type": "function"
        },
        {
            "constant": true,
            "inputs": [
                {
                    "internalType": "address",
                    "name": "",
                    "type": "address"
                }
            ],
            "name": "voter",
            "outputs": [
                {
                    "internalType": "bool",
                    "name": "",
                    "type": "bool"
                }
            ],
            "payable": false,
            "stateMutability": "view",
            "type": "function"
        },
        {
            "constant": true,
            "inputs": [],
            "name": "candidatecount",
            "outputs": [
                {
                    "internalType": "uint256",
                    "name": "",
                    "type": "uint256"
                }
            ],
            "payable": false,
            "stateMutability": "view",
            "type": "function"
        },
        {
            "inputs": [],
            "payable": false,
            "stateMutability": "nonpayable",
            "type": "constructor"
        },
        {
            "anonymous": false,
            "inputs": [
                {
                    "indexed": true,
                    "internalType": "uint256",
                    "name": "_candidateid",
                    "type": "uint256"
                }
            ],
            "name": "eventVote",
            "type": "event"
        }
    ],
    "bytecode": "608060405234801561001057600080fd5b5060408051808201909152600581527f416c6963650000000000000000000000000000000000000000000000000000006020820152610057906001600160e01b036100a216565b60408051808201909152600381527f426f620000000000000000000000000000000000000000000000000000000000602082015261009d906001600160e01b036100a216565b610199565b6001805481018082556040805160608101825282815260208082018681526000838501819052948552848252929093208151815591518051919492936100ed938501929101906100fe565b506040820151816002015590505050565b828054600181600116156101000203166002900490600052602060002090601f016020900481019282601f1061013f57805160ff191683800117855561016c565b8280016001018555821561016c579182015b8281111561016c578251825591602001919060010190610151565b5061017892915061017c565b5090565b61019691905b808211156101785760008155600101610182565b90565b6102f6806101a86000396000f3fe608060405234801561001057600080fd5b506004361061004c5760003560e01c80630121b93f146100515780633477ee2e14610070578063af0dbe5414610113578063c8b94d691461014d575b600080fd5b61006e6004803603602081101561006757600080fd5b5035610167565b005b61008d6004803603602081101561008657600080fd5b50356101fc565b6040518084815260200180602001838152602001828103825284818151815260200191508051906020019080838360005b838110156100d65781810151838201526020016100be565b50505050905090810190601f1680156101035780820380516001836020036101000a031916815260200191505b5094505050505060405180910390f35b6101396004803603602081101561012957600080fd5b50356001600160a01b03166102a6565b604080519115158252519081900360200190f35b6101556102bb565b60408051918252519081900360200190f35b3360009081526002602052604090205460ff161561018457600080fd5b60008111801561019657506001548111155b61019f57600080fd5b336000908152600260208181526040808420805460ff1916600190811790915585855291849052808420909201805490910190555182917f5190cbcb11a5b819d29d510204755e1304f26705e78d63e90e9befa7c78c164b91a250565b600060208181529181526040908190208054600180830180548551600293821615610100026000190190911692909204601f81018790048702830187019095528482529194929390928301828280156102965780601f1061026b57610100808354040283529160200191610296565b820191906000526020600020905b81548152906001019060200180831161027957829003601f168201915b5050505050908060020154905083565b60026020526000908152604090205460ff1681565b6001548156fea265627a7a723158207cd154d133954ece23d85877415d94aca158e898b7a17cd2da8e1d48077f4deb64736f6c634300050b0032",
    "sourcePath": "c:/Users/Bikash/Desktop/training-lab/ethereum/truffle-dapp/contracts/Election.sol",
    "compiler": {
        "name": "solc",
        "version": "0.5.11+commit.c082d0b4"
    },
    "functionHashes": {
        "candidatecount()": "c8b94d69",
        "candidates(uint256)": "3477ee2e",
        "vote(uint256)": "0121b93f",
        "voter(address)": "af0dbe54"
    },
    "gasEstimates": {
        "creation": {
            "codeDepositCost": "151600",
            "executionCost": "infinite",
            "totalCost": "infinite"
        },
        "external": {
            "candidatecount()": "442",
            "candidates(uint256)": "infinite",
            "vote(uint256)": "42460",
            "voter(address)": "558"
        },
        "internal": {
            "addCandidate(string memory)": "infinite"
        }
    }
}